:1000000094EF00F0B80EB66E160E606EEF0E676ECF
:10001000666865686468A5EF00F0EACF0FF0E9CF85
:100020000EF008AE08D00E8E0EA80E2A071E081E6F
:10003000072AD8B4082A0838F0090A6E0A26E20FFF
:100040000B6E320F0D6E08500F0B0B260B260D2674
:10005000E90F0C6E0C260C2607380F0B0C260D260C
:100060000C360D360D1E0D3607500F0B0D260A36B9
:10007000070E096E0A0E0C060D26FDE30B060C2674
:10008000FDE30A060B26FDE309060A26FDE3EA6AFC
:10009000090EE96E070E0E140E9CED520E1407E1C8
:1000A0000EB8EE520EB803D0200E006E20D0E92616
:1000B000000EEA22E9500D0803E1EA5201E10E8C3C
:1000C000EF50006E08E10EBC06D00EB814D00EB68C
:1000D00002D0200E0BD00EAE06D02D0E006EED50CD
:1000E0000E9C0E9E04D00E860E98300E00260050F8
:1000F0009EA8FED7AD6EEE500EACDCD7B6EF00F08A
:10010000EA6A080EE96EEF500DE0060E016E006A15
:10011000002EFED7012EFBD77B0E006E002EFED7E1
:10012000EF2EF3D7C3EF00F0F86AD09EAA86080E30
:10013000AF6E020EB06EA60EAC6E900EAB6EB990A6
:10014000C19CC19E000EB86E5DD7066A056A673015
:10015000066E6630056E063205323F0E0616100E2C
:10016000E96E06C008F005C007F057D70D0E9EA82F
:10017000FED7AD6E0A0E9EA8FED7AD6E040E076EBA
:0E018000FA0E086EBDD7072EFBD7E1D703009D
:020000040030CA
:0E00000000C20C3E3C9D81000FC00FE00F407F
:00000001FF
;PIC18F4431
;CRC=00FF  CREATED="12-Sep-23 12:50"
